{
  "contractName": "MusiciansManager",
  "abi": [
    {
      "inputs": [
        {
          "internalType": "address",
          "name": "_address",
          "type": "address"
        },
        {
          "internalType": "string",
          "name": "_name",
          "type": "string"
        }
      ],
      "name": "addMusician",
      "outputs": [],
      "stateMutability": "nonpayable",
      "type": "function"
    },
    {
      "inputs": [
        {
          "internalType": "address",
          "name": "_address",
          "type": "address"
        }
      ],
      "name": "getMusician",
      "outputs": [
        {
          "components": [
            {
              "internalType": "string",
              "name": "name",
              "type": "string"
            },
            {
              "components": [
                {
                  "internalType": "string",
                  "name": "title",
                  "type": "string"
                },
                {
                  "internalType": "uint256",
                  "name": "duration",
                  "type": "uint256"
                }
              ],
              "internalType": "struct MusiciansManager.Track[]",
              "name": "tracks",
              "type": "tuple[]"
            }
          ],
          "internalType": "struct MusiciansManager.Musician",
          "name": "",
          "type": "tuple"
        }
      ],
      "stateMutability": "view",
      "type": "function"
    },
    {
      "inputs": [
        {
          "internalType": "address",
          "name": "_address",
          "type": "address"
        },
        {
          "internalType": "string",
          "name": "_title",
          "type": "string"
        },
        {
          "internalType": "uint256",
          "name": "_duration",
          "type": "uint256"
        }
      ],
      "name": "addTrack",
      "outputs": [],
      "stateMutability": "nonpayable",
      "type": "function"
    },
    {
      "inputs": [
        {
          "internalType": "address",
          "name": "_address",
          "type": "address"
        }
      ],
      "name": "getTracks",
      "outputs": [
        {
          "components": [
            {
              "internalType": "string",
              "name": "title",
              "type": "string"
            },
            {
              "internalType": "uint256",
              "name": "duration",
              "type": "uint256"
            }
          ],
          "internalType": "struct MusiciansManager.Track[]",
          "name": "",
          "type": "tuple[]"
        }
      ],
      "stateMutability": "view",
      "type": "function"
    }
  ],
  "bytecode": "0x608060405234801561001057600080fd5b50336000806101000a81548173ffffffffffffffffffffffffffffffffffffffff021916908373ffffffffffffffffffffffffffffffffffffffff160217905550610e8f806100606000396000f3fe608060405234801561001057600080fd5b506004361061004c5760003560e01c80636bcc7782146100515780637b061e3814610081578063b14efb5f1461009d578063ea55d5a8146100b9575b600080fd5b61006b600480360381019061006691906107f7565b6100e9565b60405161007891906109d5565b60405180910390f35b61009b60048036038101906100969190610b2c565b610226565b005b6100b760048036038101906100b29190610bb4565b6103a0565b005b6100d360048036038101906100ce91906107f7565b6104e2565b6040516100e09190610ced565b60405180910390f35b6060600160008373ffffffffffffffffffffffffffffffffffffffff1673ffffffffffffffffffffffffffffffffffffffff168152602001908152602001600020600101805480602002602001604051908101604052809291908181526020016000905b8282101561021b578382906000526020600020906002020160405180604001604052908160008201805461018090610d3e565b80601f01602080910402602001604051908101604052809291908181526020018280546101ac90610d3e565b80156101f95780601f106101ce576101008083540402835291602001916101f9565b820191906000526020600020905b8154815290600101906020018083116101dc57829003601f168201915b505050505081526020016001820154815250508152602001906001019061014d565b505050509050919050565b3373ffffffffffffffffffffffffffffffffffffffff1660008054906101000a900473ffffffffffffffffffffffffffffffffffffffff1673ffffffffffffffffffffffffffffffffffffffff16146102b4576040517f08c379a00000000000000000000000000000000000000000000000000000000081526004016102ab90610dcd565b60405180910390fd5b6000600160008473ffffffffffffffffffffffffffffffffffffffff1673ffffffffffffffffffffffffffffffffffffffff168152602001908152602001600020600001805461030390610d3e565b905014610345576040517f08c379a000000000000000000000000000000000000000000000000000000000815260040161033c90610e39565b60405180910390fd5b80600160008473ffffffffffffffffffffffffffffffffffffffff1673ffffffffffffffffffffffffffffffffffffffff168152602001908152602001600020600001908051906020019061039b9291906106c8565b505050565b3373ffffffffffffffffffffffffffffffffffffffff1660008054906101000a900473ffffffffffffffffffffffffffffffffffffffff1673ffffffffffffffffffffffffffffffffffffffff161461042e576040517f08c379a000000000000000000000000000000000000000000000000000000000815260040161042590610dcd565b60405180910390fd5b60006040518060400160405280848152602001838152509050600160008573ffffffffffffffffffffffffffffffffffffffff1673ffffffffffffffffffffffffffffffffffffffff16815260200190815260200160002060010181908060018154018082558091505060019003906000526020600020906002020160009091909190915060008201518160000190805190602001906104cf9291906106c8565b5060208201518160010155505050505050565b6104ea61074e565b600160008373ffffffffffffffffffffffffffffffffffffffff1673ffffffffffffffffffffffffffffffffffffffff16815260200190815260200160002060405180604001604052908160008201805461054490610d3e565b80601f016020809104026020016040519081016040528092919081815260200182805461057090610d3e565b80156105bd5780601f10610592576101008083540402835291602001916105bd565b820191906000526020600020905b8154815290600101906020018083116105a057829003601f168201915b5050505050815260200160018201805480602002602001604051908101604052809291908181526020016000905b828210156106b9578382906000526020600020906002020160405180604001604052908160008201805461061e90610d3e565b80601f016020809104026020016040519081016040528092919081815260200182805461064a90610d3e565b80156106975780601f1061066c57610100808354040283529160200191610697565b820191906000526020600020905b81548152906001019060200180831161067a57829003601f168201915b50505050508152602001600182015481525050815260200190600101906105eb565b50505050815250509050919050565b8280546106d490610d3e565b90600052602060002090601f0160209004810192826106f6576000855561073d565b82601f1061070f57805160ff191683800117855561073d565b8280016001018555821561073d579182015b8281111561073c578251825591602001919060010190610721565b5b50905061074a9190610768565b5090565b604051806040016040528060608152602001606081525090565b5b80821115610781576000816000905550600101610769565b5090565b6000604051905090565b600080fd5b600080fd5b600073ffffffffffffffffffffffffffffffffffffffff82169050919050565b60006107c482610799565b9050919050565b6107d4816107b9565b81146107df57600080fd5b50565b6000813590506107f1816107cb565b92915050565b60006020828403121561080d5761080c61078f565b5b600061081b848285016107e2565b91505092915050565b600081519050919050565b600082825260208201905092915050565b6000819050602082019050919050565b600081519050919050565b600082825260208201905092915050565b60005b8381101561088a57808201518184015260208101905061086f565b83811115610899576000848401525b50505050565b6000601f19601f8301169050919050565b60006108bb82610850565b6108c5818561085b565b93506108d581856020860161086c565b6108de8161089f565b840191505092915050565b6000819050919050565b6108fc816108e9565b82525050565b6000604083016000830151848203600086015261091f82826108b0565b915050602083015161093460208601826108f3565b508091505092915050565b600061094b8383610902565b905092915050565b6000602082019050919050565b600061096b82610824565b610975818561082f565b93508360208202850161098785610840565b8060005b858110156109c357848403895281516109a4858261093f565b94506109af83610953565b925060208a0199505060018101905061098b565b50829750879550505050505092915050565b600060208201905081810360008301526109ef8184610960565b905092915050565b600080fd5b600080fd5b7f4e487b7100000000000000000000000000000000000000000000000000000000600052604160045260246000fd5b610a398261089f565b810181811067ffffffffffffffff82111715610a5857610a57610a01565b5b80604052505050565b6000610a6b610785565b9050610a778282610a30565b919050565b600067ffffffffffffffff821115610a9757610a96610a01565b5b610aa08261089f565b9050602081019050919050565b82818337600083830152505050565b6000610acf610aca84610a7c565b610a61565b905082815260208101848484011115610aeb57610aea6109fc565b5b610af6848285610aad565b509392505050565b600082601f830112610b1357610b126109f7565b5b8135610b23848260208601610abc565b91505092915050565b60008060408385031215610b4357610b4261078f565b5b6000610b51858286016107e2565b925050602083013567ffffffffffffffff811115610b7257610b71610794565b5b610b7e85828601610afe565b9150509250929050565b610b91816108e9565b8114610b9c57600080fd5b50565b600081359050610bae81610b88565b92915050565b600080600060608486031215610bcd57610bcc61078f565b5b6000610bdb868287016107e2565b935050602084013567ffffffffffffffff811115610bfc57610bfb610794565b5b610c0886828701610afe565b9250506040610c1986828701610b9f565b9150509250925092565b600082825260208201905092915050565b6000610c3f82610824565b610c498185610c23565b935083602082028501610c5b85610840565b8060005b85811015610c975784840389528151610c78858261093f565b9450610c8383610953565b925060208a01995050600181019050610c5f565b50829750879550505050505092915050565b60006040830160008301518482036000860152610cc682826108b0565b91505060208301518482036020860152610ce08282610c34565b9150508091505092915050565b60006020820190508181036000830152610d078184610ca9565b905092915050565b7f4e487b7100000000000000000000000000000000000000000000000000000000600052602260045260246000fd5b60006002820490506001821680610d5657607f821691505b60208210811415610d6a57610d69610d0f565b5b50919050565b600082825260208201905092915050565b7f566f7573206e276574657320706173206c652070726f70726965746169726500600082015250565b6000610db7601f83610d70565b9150610dc282610d81565b602082019050919050565b60006020820190508181036000830152610de681610daa565b9050919050565b7f4c65206d7573696369616e206578697374652064656a61000000000000000000600082015250565b6000610e23601783610d70565b9150610e2e82610ded565b602082019050919050565b60006020820190508181036000830152610e5281610e16565b905091905056fea26469706673582212200110ca0f8dd35114df9ff4f8783adc343540f546ce97a77ab6b4d7b1e7b4344d64736f6c63430008090033",
  "immutableReferences": {},
  "source": "// SPDX-License-Identifier: MIT\npragma solidity >=0.4.22 <0.9.0;\n\nimport './_isOwner.sol';\n\ncontract MusiciansManager is _isOwner{\n  \n  struct Track {\n    string title;\n    uint duration;\n  }\n\n  struct Musician {\n    string name;\n    Track[] tracks;\n  }\n\n  mapping(address => Musician) Musicians;\n\n  function addMusician (address _address, string memory _name) external onlyOwner {\n    require(bytes(Musicians[_address].name).length == 0, \"Le musician existe deja\");\n    Musicians[_address].name = _name;\n  }\n\n  function getMusician (address _address) external view returns (Musician memory) {\n    return Musicians[_address];\n  }\n\n  function addTrack(address _address, string memory _title, uint _duration) external onlyOwner {\n    Track memory thisTrack = Track(_title, _duration);\n    Musicians[_address].tracks.push(thisTrack);\n  }\n\n  function getTracks(address _address) external view returns (Track [] memory) {\n    return Musicians[_address].tracks;\n  } \n}\n",
  "sourcePath": "D:\\cours\\solidity\\tests\\MusiciansManager-2\\contracts\\MusiciansManager.sol",
  "compiler": {
    "name": "solc",
    "version": "0.8.9+commit.e5eed63a.Emscripten.clang"
  },
  "schemaVersion": "3.4.11",
  "updatedAt": "2023-02-10T22:24:18.388Z",
  "devdoc": {
    "kind": "dev",
    "methods": {},
    "version": 1
  },
  "userdoc": {
    "kind": "user",
    "methods": {},
    "version": 1
  }
}